{
    "txid": "78be6ca00ce5701e62bebf1719d9b89747b29da29d1cb39c66e54e994730277c",
    "hash": "78be6ca00ce5701e62bebf1719d9b89747b29da29d1cb39c66e54e994730277c",
    "version": 1,
    "size": 85,
    "vsize": 85,
    "locktime": 0,
    "vin": [
        {
            "txid": "6c2789243608b46f750f49ff24f6f79a78c3010f7e56951e045e5b7ea5d07bf7",
            "vout": 0,
            "scriptSig": {
                "asm": "",
                "hex": ""
            },
            "sequence": 4294967295
        }
    ],
    "vout": [
        {
            "value": 0.00100000,
            "n": 0,
            "scriptPubKey": {
                "asm": "OP_DUP OP_HASH160 6c772e9cf96371bba3da8cb733da70a2fcf20078 OP_EQUALVERIFY OP_CHECKSIG",
                "hex": "76a9146c772e9cf96371bba3da8cb733da70a2fcf2007888ac",
                "reqSigs": 1,
                "type": "pubkeyhash",
                "addresses": [
                    "DF2cHtiK4xeXPUBhMdK7XWU5UNYSg2KFvt"
                ]
            }
        }
    ],
    "hex": "0100000001f77bd0a57e5b5e041e95567e0f01c3789af7f624ff490f756fb408362489276c0000000000ffffffff01a0860100000000001976a9146c772e9cf96371bba3da8cb733da70a2fcf2007888ac00000000"
}
