{
    "txid": "43856a2793950e35d2c90fee95fe2132578b9bcbee055435fb1025e3cd6c1d15",
    "hash": "43856a2793950e35d2c90fee95fe2132578b9bcbee055435fb1025e3cd6c1d15",
    "version": 2,
    "size": 85,
    "vsize": 85,
    "locktime": 0,
    "vin": [
        {
            "txid": "69e9c12d30a6cd598a31ddfcaabeb9d9f0baf8938bf0ba6610beb04f589cc5ef",
            "vout": 0,
            "scriptSig": {
                "asm": "",
                "hex": ""
            },
            "sequence": 4294967293
        }
    ],
    "vout": [
        {
            "value": 0.00200000,
            "n": 0,
            "scriptPubKey": {
                "asm": "OP_DUP OP_HASH160 9f69a2899dfd534eddeb8ec7d533f465f063dc22 OP_EQUALVERIFY OP_CHECKSIG",
                "hex": "76a9149f69a2899dfd534eddeb8ec7d533f465f063dc2288ac",
                "reqSigs": 1,
                "type": "pubkeyhash",
                "addresses": [
                    "DKfzXQG7RiH3wE9tNJEKd3PK3UdgQshoTP"
                ]
            }
        }
    ],
    "hex": "0200000001efc59c584fb0be1066baf08b93f8baf0d9b9beaafcdd318a59cda6302dc1e9690000000000fdffffff01400d0300000000001976a9149f69a2899dfd534eddeb8ec7d533f465f063dc2288ac00000000"
}
